{
  "_format": "hh-sol-artifact-1",
  "contractName": "NFT",
  "sourceName": "contracts/NFT.sol",
  "abi": [
    {
      "inputs": [
        {
          "internalType": "address",
          "name": "marketplaceAddress",
          "type": "address"
        }
      ],
      "stateMutability": "nonpayable",
      "type": "constructor"
    },
    {
      "anonymous": false,
      "inputs": [
        {
          "indexed": true,
          "internalType": "address",
          "name": "owner",
          "type": "address"
        },
        {
          "indexed": true,
          "internalType": "address",
          "name": "approved",
          "type": "address"
        },
        {
          "indexed": true,
          "internalType": "uint256",
          "name": "tokenId",
          "type": "uint256"
        }
      ],
      "name": "Approval",
      "type": "event"
    },
    {
      "anonymous": false,
      "inputs": [
        {
          "indexed": true,
          "internalType": "address",
          "name": "owner",
          "type": "address"
        },
        {
          "indexed": true,
          "internalType": "address",
          "name": "operator",
          "type": "address"
        },
        {
          "indexed": false,
          "internalType": "bool",
          "name": "approved",
          "type": "bool"
        }
      ],
      "name": "ApprovalForAll",
      "type": "event"
    },
    {
      "anonymous": false,
      "inputs": [
        {
          "indexed": true,
          "internalType": "address",
          "name": "from",
          "type": "address"
        },
        {
          "indexed": true,
          "internalType": "address",
          "name": "to",
          "type": "address"
        },
        {
          "indexed": true,
          "internalType": "uint256",
          "name": "tokenId",
          "type": "uint256"
        }
      ],
      "name": "Transfer",
      "type": "event"
    },
    {
      "inputs": [
        {
          "internalType": "address",
          "name": "to",
          "type": "address"
        },
        {
          "internalType": "uint256",
          "name": "tokenId",
          "type": "uint256"
        }
      ],
      "name": "approve",
      "outputs": [],
      "stateMutability": "nonpayable",
      "type": "function"
    },
    {
      "inputs": [
        {
          "internalType": "address",
          "name": "owner",
          "type": "address"
        }
      ],
      "name": "balanceOf",
      "outputs": [
        {
          "internalType": "uint256",
          "name": "",
          "type": "uint256"
        }
      ],
      "stateMutability": "view",
      "type": "function"
    },
    {
      "inputs": [
        {
          "internalType": "string",
          "name": "IPFStokenURI",
          "type": "string"
        }
      ],
      "name": "createToken",
      "outputs": [
        {
          "internalType": "uint256",
          "name": "",
          "type": "uint256"
        }
      ],
      "stateMutability": "nonpayable",
      "type": "function"
    },
    {
      "inputs": [
        {
          "internalType": "uint256",
          "name": "tokenId",
          "type": "uint256"
        }
      ],
      "name": "getApproved",
      "outputs": [
        {
          "internalType": "address",
          "name": "",
          "type": "address"
        }
      ],
      "stateMutability": "view",
      "type": "function"
    },
    {
      "inputs": [
        {
          "internalType": "address",
          "name": "_owner",
          "type": "address"
        }
      ],
      "name": "getTokenIds",
      "outputs": [
        {
          "internalType": "uint256[]",
          "name": "",
          "type": "uint256[]"
        }
      ],
      "stateMutability": "view",
      "type": "function"
    },
    {
      "inputs": [
        {
          "internalType": "address",
          "name": "owner",
          "type": "address"
        },
        {
          "internalType": "address",
          "name": "operator",
          "type": "address"
        }
      ],
      "name": "isApprovedForAll",
      "outputs": [
        {
          "internalType": "bool",
          "name": "",
          "type": "bool"
        }
      ],
      "stateMutability": "view",
      "type": "function"
    },
    {
      "inputs": [],
      "name": "name",
      "outputs": [
        {
          "internalType": "string",
          "name": "",
          "type": "string"
        }
      ],
      "stateMutability": "view",
      "type": "function"
    },
    {
      "inputs": [
        {
          "internalType": "uint256",
          "name": "tokenId",
          "type": "uint256"
        }
      ],
      "name": "ownerOf",
      "outputs": [
        {
          "internalType": "address",
          "name": "",
          "type": "address"
        }
      ],
      "stateMutability": "view",
      "type": "function"
    },
    {
      "inputs": [
        {
          "internalType": "address",
          "name": "from",
          "type": "address"
        },
        {
          "internalType": "address",
          "name": "to",
          "type": "address"
        },
        {
          "internalType": "uint256",
          "name": "tokenId",
          "type": "uint256"
        }
      ],
      "name": "safeTransferFrom",
      "outputs": [],
      "stateMutability": "nonpayable",
      "type": "function"
    },
    {
      "inputs": [
        {
          "internalType": "address",
          "name": "from",
          "type": "address"
        },
        {
          "internalType": "address",
          "name": "to",
          "type": "address"
        },
        {
          "internalType": "uint256",
          "name": "tokenId",
          "type": "uint256"
        },
        {
          "internalType": "bytes",
          "name": "_data",
          "type": "bytes"
        }
      ],
      "name": "safeTransferFrom",
      "outputs": [],
      "stateMutability": "nonpayable",
      "type": "function"
    },
    {
      "inputs": [
        {
          "internalType": "address",
          "name": "operator",
          "type": "address"
        },
        {
          "internalType": "bool",
          "name": "approved",
          "type": "bool"
        }
      ],
      "name": "setApprovalForAll",
      "outputs": [],
      "stateMutability": "nonpayable",
      "type": "function"
    },
    {
      "inputs": [
        {
          "internalType": "bytes4",
          "name": "interfaceId",
          "type": "bytes4"
        }
      ],
      "name": "supportsInterface",
      "outputs": [
        {
          "internalType": "bool",
          "name": "",
          "type": "bool"
        }
      ],
      "stateMutability": "view",
      "type": "function"
    },
    {
      "inputs": [],
      "name": "symbol",
      "outputs": [
        {
          "internalType": "string",
          "name": "",
          "type": "string"
        }
      ],
      "stateMutability": "view",
      "type": "function"
    },
    {
      "inputs": [
        {
          "internalType": "uint256",
          "name": "index",
          "type": "uint256"
        }
      ],
      "name": "tokenByIndex",
      "outputs": [
        {
          "internalType": "uint256",
          "name": "",
          "type": "uint256"
        }
      ],
      "stateMutability": "view",
      "type": "function"
    },
    {
      "inputs": [
        {
          "internalType": "address",
          "name": "owner",
          "type": "address"
        },
        {
          "internalType": "uint256",
          "name": "index",
          "type": "uint256"
        }
      ],
      "name": "tokenOfOwnerByIndex",
      "outputs": [
        {
          "internalType": "uint256",
          "name": "",
          "type": "uint256"
        }
      ],
      "stateMutability": "view",
      "type": "function"
    },
    {
      "inputs": [
        {
          "internalType": "uint256",
          "name": "tokenId",
          "type": "uint256"
        }
      ],
      "name": "tokenURI",
      "outputs": [
        {
          "internalType": "string",
          "name": "",
          "type": "string"
        }
      ],
      "stateMutability": "view",
      "type": "function"
    },
    {
      "inputs": [],
      "name": "totalSupply",
      "outputs": [
        {
          "internalType": "uint256",
          "name": "",
          "type": "uint256"
        }
      ],
      "stateMutability": "view",
      "type": "function"
    },
    {
      "inputs": [
        {
          "internalType": "address",
          "name": "from",
          "type": "address"
        },
        {
          "internalType": "address",
          "name": "to",
          "type": "address"
        },
        {
          "internalType": "uint256",
          "name": "tokenId",
          "type": "uint256"
        }
      ],
      "name": "transferFrom",
      "outputs": [],
      "stateMutability": "nonpayable",
      "type": "function"
    }
  ],
  "bytecode": "0x60806040523480156200001157600080fd5b5060405162001e3338038062001e33833981016040819052620000349162000167565b60408051808201825260098152684d657461766572736560b81b6020808301918252835180850190945260048452631351551560e21b9084015281519192916200008191600091620000c1565b50805162000097906001906020840190620000c1565b5050600c80546001600160a01b0319166001600160a01b03939093169290921790915550620001d4565b828054620000cf9062000197565b90600052602060002090601f016020900481019282620000f357600085556200013e565b82601f106200010e57805160ff19168380011785556200013e565b828001600101855582156200013e579182015b828111156200013e57825182559160200191906001019062000121565b506200014c92915062000150565b5090565b5b808211156200014c576000815560010162000151565b60006020828403121562000179578081fd5b81516001600160a01b038116811462000190578182fd5b9392505050565b600181811c90821680620001ac57607f821691505b60208210811415620001ce57634e487b7160e01b600052602260045260246000fd5b50919050565b611c4f80620001e46000396000f3fe608060405234801561001057600080fd5b50600436106101165760003560e01c80634f6ccce7116100a2578063a22cb46511610071578063a22cb46514610237578063b88d4fde1461024a578063c87b56dd1461025d578063d004b03614610270578063e985e9c51461029057600080fd5b80634f6ccce7146101f65780636352211e1461020957806370a082311461021c57806395d89b411461022f57600080fd5b806318160ddd116100e957806318160ddd1461019857806323b872dd146101aa5780632f745c59146101bd57806342842e0e146101d057806345576f94146101e357600080fd5b806301ffc9a71461011b57806306fdde0314610143578063081812fc14610158578063095ea7b314610183575b600080fd5b61012e6101293660046118bd565b6102cc565b60405190151581526020015b60405180910390f35b61014b6102dd565b60405161013a9190611a2f565b61016b61016636600461193b565b61036f565b6040516001600160a01b03909116815260200161013a565b610196610191366004611894565b6103fc565b005b6009545b60405190815260200161013a565b6101966101b83660046117a6565b610512565b61019c6101cb366004611894565b610543565b6101966101de3660046117a6565b6105d9565b61019c6101f13660046118f5565b6105f4565b61019c61020436600461193b565b61063c565b61016b61021736600461193b565b6106dd565b61019c61022a36600461175a565b610754565b61014b6107db565b61019661024536600461185a565b6107ea565b6101966102583660046117e1565b6108af565b61014b61026b36600461193b565b6108e7565b61028361027e36600461175a565b6108f2565b60405161013a91906119eb565b61012e61029e366004611774565b6001600160a01b03918216600090815260056020908152604080832093909416825291909152205460ff1690565b60006102d7826109b2565b92915050565b6060600080546102ec90611b54565b80601f016020809104026020016040519081016040528092919081815260200182805461031890611b54565b80156103655780601f1061033a57610100808354040283529160200191610365565b820191906000526020600020905b81548152906001019060200180831161034857829003601f168201915b5050505050905090565b600061037a826109d7565b6103e05760405162461bcd60e51b815260206004820152602c60248201527f4552433732313a20617070726f76656420717565727920666f72206e6f6e657860448201526b34b9ba32b73a103a37b5b2b760a11b60648201526084015b60405180910390fd5b506000908152600460205260409020546001600160a01b031690565b6000610407826106dd565b9050806001600160a01b0316836001600160a01b031614156104755760405162461bcd60e51b815260206004820152602160248201527f4552433732313a20617070726f76616c20746f2063757272656e74206f776e656044820152603960f91b60648201526084016103d7565b336001600160a01b03821614806104915750610491813361029e565b6105035760405162461bcd60e51b815260206004820152603860248201527f4552433732313a20617070726f76652063616c6c6572206973206e6f74206f7760448201527f6e6572206e6f7220617070726f76656420666f7220616c6c000000000000000060648201526084016103d7565b61050d83836109f4565b505050565b61051c3382610a62565b6105385760405162461bcd60e51b81526004016103d790611a94565b61050d838383610b4c565b600061054e83610754565b82106105b05760405162461bcd60e51b815260206004820152602b60248201527f455243373231456e756d657261626c653a206f776e657220696e646578206f7560448201526a74206f6620626f756e647360a81b60648201526084016103d7565b506001600160a01b03919091166000908152600760209081526040808320938352929052205490565b61050d838383604051806020016040528060008152506108af565b6000610604600b80546001019055565b600061060f600b5490565b905061061b3382610cf7565b6106258184610e36565b600c546102d7906001600160a01b031660016107ea565b600061064760095490565b82106106aa5760405162461bcd60e51b815260206004820152602c60248201527f455243373231456e756d657261626c653a20676c6f62616c20696e646578206f60448201526b7574206f6620626f756e647360a01b60648201526084016103d7565b600982815481106106cb57634e487b7160e01b600052603260045260246000fd5b90600052602060002001549050919050565b6000818152600260205260408120546001600160a01b0316806102d75760405162461bcd60e51b815260206004820152602960248201527f4552433732313a206f776e657220717565727920666f72206e6f6e657869737460448201526832b73a103a37b5b2b760b91b60648201526084016103d7565b60006001600160a01b0382166107bf5760405162461bcd60e51b815260206004820152602a60248201527f4552433732313a2062616c616e636520717565727920666f7220746865207a65604482015269726f206164647265737360b01b60648201526084016103d7565b506001600160a01b031660009081526003602052604090205490565b6060600180546102ec90611b54565b6001600160a01b0382163314156108435760405162461bcd60e51b815260206004820152601960248201527f4552433732313a20617070726f766520746f2063616c6c65720000000000000060448201526064016103d7565b3360008181526005602090815260408083206001600160a01b03871680855290835292819020805460ff191686151590811790915590519081529192917f17307eab39ab6107e8899845ad3d59bd9653f200f220920489ca2b5937696c31910160405180910390a35050565b6108b93383610a62565b6108d55760405162461bcd60e51b81526004016103d790611a94565b6108e184848484610ec1565b50505050565b60606102d782610ef4565b606060006108ff83610754565b67ffffffffffffffff81111561092557634e487b7160e01b600052604160045260246000fd5b60405190808252806020026020018201604052801561094e578160200160208202803683370190505b50905060005b61095d84610754565b8110156109ab5761096e8482610543565b82828151811061098e57634e487b7160e01b600052603260045260246000fd5b6020908102919091010152806109a381611b8f565b915050610954565b5092915050565b60006001600160e01b0319821663780e9d6360e01b14806102d757506102d782611063565b6000908152600260205260409020546001600160a01b0316151590565b600081815260046020526040902080546001600160a01b0319166001600160a01b0384169081179091558190610a29826106dd565b6001600160a01b03167f8c5be1e5ebec7d5bd14f71427d1e84f3dd0314c0f7b2291e5b200ac8c7c3b92560405160405180910390a45050565b6000610a6d826109d7565b610ace5760405162461bcd60e51b815260206004820152602c60248201527f4552433732313a206f70657261746f7220717565727920666f72206e6f6e657860448201526b34b9ba32b73a103a37b5b2b760a11b60648201526084016103d7565b6000610ad9836106dd565b9050806001600160a01b0316846001600160a01b03161480610b145750836001600160a01b0316610b098461036f565b6001600160a01b0316145b80610b4457506001600160a01b0380821660009081526005602090815260408083209388168352929052205460ff165b949350505050565b826001600160a01b0316610b5f826106dd565b6001600160a01b031614610bc75760405162461bcd60e51b815260206004820152602960248201527f4552433732313a207472616e73666572206f6620746f6b656e2074686174206960448201526839903737ba1037bbb760b91b60648201526084016103d7565b6001600160a01b038216610c295760405162461bcd60e51b8152602060048201526024808201527f4552433732313a207472616e7366657220746f20746865207a65726f206164646044820152637265737360e01b60648201526084016103d7565b610c348383836110b3565b610c3f6000826109f4565b6001600160a01b0383166000908152600360205260408120805460019290610c68908490611b11565b90915550506001600160a01b0382166000908152600360205260408120805460019290610c96908490611ae5565b909155505060008181526002602052604080822080546001600160a01b0319166001600160a01b0386811691821790925591518493918716917fddf252ad1be2c89b69c2b068fc378daa952ba7f163c4a11628f55a4df523b3ef91a4505050565b6001600160a01b038216610d4d5760405162461bcd60e51b815260206004820181905260248201527f4552433732313a206d696e7420746f20746865207a65726f206164647265737360448201526064016103d7565b610d56816109d7565b15610da35760405162461bcd60e51b815260206004820152601c60248201527f4552433732313a20746f6b656e20616c7265616479206d696e7465640000000060448201526064016103d7565b610daf600083836110b3565b6001600160a01b0382166000908152600360205260408120805460019290610dd8908490611ae5565b909155505060008181526002602052604080822080546001600160a01b0319166001600160a01b03861690811790915590518392907fddf252ad1be2c89b69c2b068fc378daa952ba7f163c4a11628f55a4df523b3ef908290a45050565b610e3f826109d7565b610ea25760405162461bcd60e51b815260206004820152602e60248201527f45524337323155524953746f726167653a2055524920736574206f66206e6f6e60448201526d32bc34b9ba32b73a103a37b5b2b760911b60648201526084016103d7565b6000828152600660209081526040909120825161050d9284019061162f565b610ecc848484610b4c565b610ed8848484846110be565b6108e15760405162461bcd60e51b81526004016103d790611a42565b6060610eff826109d7565b610f655760405162461bcd60e51b815260206004820152603160248201527f45524337323155524953746f726167653a2055524920717565727920666f72206044820152703737b732bc34b9ba32b73a103a37b5b2b760791b60648201526084016103d7565b60008281526006602052604081208054610f7e90611b54565b80601f0160208091040260200160405190810160405280929190818152602001828054610faa90611b54565b8015610ff75780601f10610fcc57610100808354040283529160200191610ff7565b820191906000526020600020905b815481529060010190602001808311610fda57829003601f168201915b50505050509050600061101560408051602081019091526000815290565b9050805160001415611028575092915050565b81511561105a57808260405160200161104292919061197f565b60405160208183030381529060405292505050919050565b610b44846111cb565b60006001600160e01b031982166380ac58cd60e01b148061109457506001600160e01b03198216635b5e139f60e01b145b806102d757506301ffc9a760e01b6001600160e01b03198316146102d7565b61050d8383836112a3565b60006001600160a01b0384163b156111c057604051630a85bd0160e11b81526001600160a01b0385169063150b7a02906111029033908990889088906004016119ae565b602060405180830381600087803b15801561111c57600080fd5b505af192505050801561114c575060408051601f3d908101601f19168201909252611149918101906118d9565b60015b6111a6573d80801561117a576040519150601f19603f3d011682016040523d82523d6000602084013e61117f565b606091505b50805161119e5760405162461bcd60e51b81526004016103d790611a42565b805181602001fd5b6001600160e01b031916630a85bd0160e11b149050610b44565b506001949350505050565b60606111d6826109d7565b61123a5760405162461bcd60e51b815260206004820152602f60248201527f4552433732314d657461646174613a2055524920717565727920666f72206e6f60448201526e3732bc34b9ba32b73a103a37b5b2b760891b60648201526084016103d7565b600061125160408051602081019091526000815290565b90506000815111611271576040518060200160405280600081525061129c565b8061127b8461135b565b60405160200161128c92919061197f565b6040516020818303038152906040525b9392505050565b6001600160a01b0383166112fe576112f981600980546000838152600a60205260408120829055600182018355919091527f6e1540171b6c0c960b71a7020d9f60077f6af931a8bbf590da0223dacf75c7af0155565b611321565b816001600160a01b0316836001600160a01b031614611321576113218382611475565b6001600160a01b0382166113385761050d81611512565b826001600160a01b0316826001600160a01b03161461050d5761050d82826115eb565b60608161137f5750506040805180820190915260018152600360fc1b602082015290565b8160005b81156113a9578061139381611b8f565b91506113a29050600a83611afd565b9150611383565b60008167ffffffffffffffff8111156113d257634e487b7160e01b600052604160045260246000fd5b6040519080825280601f01601f1916602001820160405280156113fc576020820181803683370190505b5090505b8415610b4457611411600183611b11565b915061141e600a86611baa565b611429906030611ae5565b60f81b81838151811061144c57634e487b7160e01b600052603260045260246000fd5b60200101906001600160f81b031916908160001a90535061146e600a86611afd565b9450611400565b6000600161148284610754565b61148c9190611b11565b6000838152600860205260409020549091508082146114df576001600160a01b03841660009081526007602090815260408083208584528252808320548484528184208190558352600890915290208190555b5060009182526008602090815260408084208490556001600160a01b039094168352600781528383209183525290812055565b60095460009061152490600190611b11565b6000838152600a60205260408120546009805493945090928490811061155a57634e487b7160e01b600052603260045260246000fd5b90600052602060002001549050806009838154811061158957634e487b7160e01b600052603260045260246000fd5b6000918252602080832090910192909255828152600a909152604080822084905585825281205560098054806115cf57634e487b7160e01b600052603160045260246000fd5b6001900381819060005260206000200160009055905550505050565b60006115f683610754565b6001600160a01b039093166000908152600760209081526040808320868452825280832085905593825260089052919091209190915550565b82805461163b90611b54565b90600052602060002090601f01602090048101928261165d57600085556116a3565b82601f1061167657805160ff19168380011785556116a3565b828001600101855582156116a3579182015b828111156116a3578251825591602001919060010190611688565b506116af9291506116b3565b5090565b5b808211156116af57600081556001016116b4565b600067ffffffffffffffff808411156116e3576116e3611bea565b604051601f8501601f19908116603f0116810190828211818310171561170b5761170b611bea565b8160405280935085815286868601111561172457600080fd5b858560208301376000602087830101525050509392505050565b80356001600160a01b038116811461175557600080fd5b919050565b60006020828403121561176b578081fd5b61129c8261173e565b60008060408385031215611786578081fd5b61178f8361173e565b915061179d6020840161173e565b90509250929050565b6000806000606084860312156117ba578081fd5b6117c38461173e565b92506117d16020850161173e565b9150604084013590509250925092565b600080600080608085870312156117f6578081fd5b6117ff8561173e565b935061180d6020860161173e565b925060408501359150606085013567ffffffffffffffff81111561182f578182fd5b8501601f8101871361183f578182fd5b61184e878235602084016116c8565b91505092959194509250565b6000806040838503121561186c578182fd5b6118758361173e565b915060208301358015158114611889578182fd5b809150509250929050565b600080604083850312156118a6578182fd5b6118af8361173e565b946020939093013593505050565b6000602082840312156118ce578081fd5b813561129c81611c00565b6000602082840312156118ea578081fd5b815161129c81611c00565b600060208284031215611906578081fd5b813567ffffffffffffffff81111561191c578182fd5b8201601f8101841361192c578182fd5b610b44848235602084016116c8565b60006020828403121561194c578081fd5b5035919050565b6000815180845261196b816020860160208601611b28565b601f01601f19169290920160200192915050565b60008351611991818460208801611b28565b8351908301906119a5818360208801611b28565b01949350505050565b6001600160a01b03858116825284166020820152604081018390526080606082018190526000906119e190830184611953565b9695505050505050565b6020808252825182820181905260009190848201906040850190845b81811015611a2357835183529284019291840191600101611a07565b50909695505050505050565b60208152600061129c6020830184611953565b60208082526032908201527f4552433732313a207472616e7366657220746f206e6f6e20455243373231526560408201527131b2b4bb32b91034b6b83632b6b2b73a32b960711b606082015260800190565b60208082526031908201527f4552433732313a207472616e736665722063616c6c6572206973206e6f74206f6040820152701ddb995c881b9bdc88185c1c1c9bdd9959607a1b606082015260800190565b60008219821115611af857611af8611bbe565b500190565b600082611b0c57611b0c611bd4565b500490565b600082821015611b2357611b23611bbe565b500390565b60005b83811015611b43578181015183820152602001611b2b565b838111156108e15750506000910152565b600181811c90821680611b6857607f821691505b60208210811415611b8957634e487b7160e01b600052602260045260246000fd5b50919050565b6000600019821415611ba357611ba3611bbe565b5060010190565b600082611bb957611bb9611bd4565b500690565b634e487b7160e01b600052601160045260246000fd5b634e487b7160e01b600052601260045260246000fd5b634e487b7160e01b600052604160045260246000fd5b6001600160e01b031981168114611c1657600080fd5b5056fea2646970667358221220948fcf9626783bd50c8e953ff61a7fe8010561643ceb6c2014e4e79ead09126364736f6c63430008040033",
  "linkReferences": {},
  "deployedLinkReferences": {}
}