{
  "_format": "hh-sol-artifact-1",
  "contractName": "NFTMarket",
  "sourceName": "contracts/NFTMarket.sol",
  "abi": [
    {
      "inputs": [],
      "stateMutability": "nonpayable",
      "type": "constructor"
    },
    {
      "anonymous": false,
      "inputs": [
        {
          "indexed": true,
          "internalType": "uint256",
          "name": "itemId",
          "type": "uint256"
        },
        {
          "indexed": true,
          "internalType": "address",
          "name": "nftContract",
          "type": "address"
        },
        {
          "indexed": true,
          "internalType": "uint256",
          "name": "tokenId",
          "type": "uint256"
        },
        {
          "indexed": false,
          "internalType": "address",
          "name": "seller",
          "type": "address"
        },
        {
          "indexed": false,
          "internalType": "address",
          "name": "owner",
          "type": "address"
        },
        {
          "indexed": false,
          "internalType": "uint256",
          "name": "price",
          "type": "uint256"
        },
        {
          "indexed": false,
          "internalType": "bool",
          "name": "sold",
          "type": "bool"
        },
        {
          "indexed": false,
          "internalType": "bool",
          "name": "listed",
          "type": "bool"
        }
      ],
      "name": "MarketItemCreated",
      "type": "event"
    },
    {
      "inputs": [
        {
          "internalType": "address",
          "name": "nftContract",
          "type": "address"
        },
        {
          "internalType": "uint256",
          "name": "tokenId",
          "type": "uint256"
        },
        {
          "internalType": "uint256",
          "name": "price",
          "type": "uint256"
        }
      ],
      "name": "createMarketItem",
      "outputs": [],
      "stateMutability": "payable",
      "type": "function"
    },
    {
      "inputs": [
        {
          "internalType": "address",
          "name": "nftContract",
          "type": "address"
        },
        {
          "internalType": "uint256",
          "name": "itemId",
          "type": "uint256"
        }
      ],
      "name": "createMarketSale",
      "outputs": [],
      "stateMutability": "payable",
      "type": "function"
    },
    {
      "inputs": [],
      "name": "fetchItemsCreated",
      "outputs": [
        {
          "components": [
            {
              "internalType": "uint256",
              "name": "itemId",
              "type": "uint256"
            },
            {
              "internalType": "address",
              "name": "nftContract",
              "type": "address"
            },
            {
              "internalType": "uint256",
              "name": "tokenId",
              "type": "uint256"
            },
            {
              "internalType": "address payable",
              "name": "seller",
              "type": "address"
            },
            {
              "internalType": "address payable",
              "name": "owner",
              "type": "address"
            },
            {
              "internalType": "uint256",
              "name": "price",
              "type": "uint256"
            },
            {
              "internalType": "bool",
              "name": "sold",
              "type": "bool"
            },
            {
              "internalType": "bool",
              "name": "listed",
              "type": "bool"
            }
          ],
          "internalType": "struct NFTMarket.MarketItem[]",
          "name": "",
          "type": "tuple[]"
        }
      ],
      "stateMutability": "view",
      "type": "function"
    },
    {
      "inputs": [
        {
          "internalType": "uint256",
          "name": "_tokenId",
          "type": "uint256"
        }
      ],
      "name": "fetchMarketItemHistory",
      "outputs": [
        {
          "components": [
            {
              "internalType": "uint256",
              "name": "itemId",
              "type": "uint256"
            },
            {
              "internalType": "address",
              "name": "nftContract",
              "type": "address"
            },
            {
              "internalType": "uint256",
              "name": "tokenId",
              "type": "uint256"
            },
            {
              "internalType": "address payable",
              "name": "seller",
              "type": "address"
            },
            {
              "internalType": "address payable",
              "name": "owner",
              "type": "address"
            },
            {
              "internalType": "uint256",
              "name": "price",
              "type": "uint256"
            },
            {
              "internalType": "bool",
              "name": "sold",
              "type": "bool"
            },
            {
              "internalType": "bool",
              "name": "listed",
              "type": "bool"
            }
          ],
          "internalType": "struct NFTMarket.MarketItem[]",
          "name": "",
          "type": "tuple[]"
        }
      ],
      "stateMutability": "view",
      "type": "function"
    },
    {
      "inputs": [],
      "name": "fetchMarketItems",
      "outputs": [
        {
          "components": [
            {
              "internalType": "uint256",
              "name": "itemId",
              "type": "uint256"
            },
            {
              "internalType": "address",
              "name": "nftContract",
              "type": "address"
            },
            {
              "internalType": "uint256",
              "name": "tokenId",
              "type": "uint256"
            },
            {
              "internalType": "address payable",
              "name": "seller",
              "type": "address"
            },
            {
              "internalType": "address payable",
              "name": "owner",
              "type": "address"
            },
            {
              "internalType": "uint256",
              "name": "price",
              "type": "uint256"
            },
            {
              "internalType": "bool",
              "name": "sold",
              "type": "bool"
            },
            {
              "internalType": "bool",
              "name": "listed",
              "type": "bool"
            }
          ],
          "internalType": "struct NFTMarket.MarketItem[]",
          "name": "",
          "type": "tuple[]"
        }
      ],
      "stateMutability": "view",
      "type": "function"
    },
    {
      "inputs": [],
      "name": "getListingPrice",
      "outputs": [
        {
          "internalType": "uint256",
          "name": "",
          "type": "uint256"
        }
      ],
      "stateMutability": "view",
      "type": "function"
    },
    {
      "inputs": [
        {
          "internalType": "address",
          "name": "nftContract",
          "type": "address"
        },
        {
          "internalType": "uint256",
          "name": "itemId",
          "type": "uint256"
        }
      ],
      "name": "removeMarketSale",
      "outputs": [],
      "stateMutability": "payable",
      "type": "function"
    }
  ],
  "bytecode": "0x60806040526658d15e1762800060055534801561001b57600080fd5b506001600055600480546001600160a01b03191633179055611075806100426000396000f3fe6080604052600436106100705760003560e01c8063a17ee9281161004e578063a17ee928146100d3578063c23b139e146100e6578063d2d9b4e1146100f9578063f064c32e1461011957600080fd5b80630f08efe01461007557806312e85585146100a057806358eb2df5146100be575b600080fd5b34801561008157600080fd5b5061008a61012e565b6040516100979190610f07565b60405180910390f35b3480156100ac57600080fd5b50600554604051908152602001610097565b6100d16100cc366004610ebd565b610320565b005b6100d16100e1366004610e94565b610665565b6100d16100f4366004610e94565b61080f565b34801561010557600080fd5b5061008a610114366004610eef565b6109fb565b34801561012557600080fd5b5061008a610be6565b6060600061013b60015490565b9050600061014860025490565b6003546101559190610ff7565b90506000808267ffffffffffffffff81111561018157634e487b7160e01b600052604160045260246000fd5b6040519080825280602002602001820160405280156101ba57816020015b6101a7610e34565b81526020019060019003908161019f5790505b50905060005b848110156103175760006006816101d8846001610fdf565b81526020810191909152604001600020600401546001600160a01b031614801561022f57506006600061020c836001610fdf565b815260208101919091526040016000206006015460ff6101009091041615156001145b15610305576000610241826001610fdf565b600081815260066020818152604092839020835161010080820186528254825260018301546001600160a01b039081169483019490945260028301549582019590955260038201548316606082015260048201549092166080830152600581015460a08301529182015460ff808216151560c0840152939004909216151560e08301528551929350918590879081106102ea57634e487b7160e01b600052603260045260246000fd5b6020908102919091010152610300600186610fdf565b945050505b8061030f8161100e565b9150506101c0565b50949350505050565b6002600054141561034c5760405162461bcd60e51b815260040161034390610fa8565b60405180910390fd5b60026000558061039e5760405162461bcd60e51b815260206004820152601c60248201527f5072696365206d757374206265206174206c65617374203120776569000000006044820152606401610343565b60055434146103fb5760405162461bcd60e51b8152602060048201526024808201527f5072696365206d75737420626520657175616c20746f206c697374696e6720706044820152637269636560e01b6064820152608401610343565b610409600380546001019055565b610417600180546001019055565b600061042260015490565b9050604051806101000160405280828152602001856001600160a01b03168152602001848152602001336001600160a01b0316815260200160006001600160a01b0316815260200183815260200160001515815260200160011515815250600660008381526020019081526020016000206000820151816000015560208201518160010160006101000a8154816001600160a01b0302191690836001600160a01b031602179055506040820151816002015560608201518160030160006101000a8154816001600160a01b0302191690836001600160a01b0316021790555060808201518160040160006101000a8154816001600160a01b0302191690836001600160a01b0316021790555060a0820151816005015560c08201518160060160006101000a81548160ff02191690831515021790555060e08201518160060160016101000a81548160ff021916908315150217905550905050836001600160a01b03166323b872dd3330866040518463ffffffff1660e01b81526004016105ca939291906001600160a01b039384168152919092166020820152604081019190915260600190565b600060405180830381600087803b1580156105e457600080fd5b505af11580156105f8573d6000803e3d6000fd5b50506040805133815260006020820181905281830187905260608201526001608082015290518693506001600160a01b038816925084917fc99151f4453170a67bc7441775fde1a3bc3220c06645df1121e703aab5e7da5d919081900360a00190a4505060016000555050565b600260005414156106885760405162461bcd60e51b815260040161034390610fa8565b60026000818155828152600660205260409020908101546003909101546001600160a01b031633146107105760405162461bcd60e51b815260206004820152602b60248201527f4f6e6c79207468652073656c6c6572206f662074686973206974656d2063616e60448201526a0819194b5b1a5cdd081a5d60aa1b6064820152608401610343565b6040516323b872dd60e01b8152306004820152336024820152604481018290526001600160a01b038416906323b872dd90606401600060405180830381600087803b15801561075e57600080fd5b505af1158015610772573d6000803e3d6000fd5b505050506107806003610ddd565b60008281526006602081905260408083208381556001810180546001600160a01b03199081169091556002820185905560038201805482169055600482018054909116905560058082018590559201805461ffff1916905590549051339282156108fc02929190818181858888f19350505050158015610804573d6000803e3d6000fd5b505060016000555050565b600260005414156108325760405162461bcd60e51b815260040161034390610fa8565b6002600081815582815260066020526040902060058101549101543482146108c4576040805162461bcd60e51b81526020600482015260248101919091527f506c65617365207375626d6974207468652061736b696e67207072696365206960448201527f6e206f7264657220746f20636f6d706c657465207468652070757263686173656064820152608401610343565b6000838152600660205260408082206003015490516001600160a01b03909116913480156108fc02929091818181858888f1935050505015801561090c573d6000803e3d6000fd5b506040516323b872dd60e01b8152306004820152336024820152604481018290526001600160a01b038516906323b872dd90606401600060405180830381600087803b15801561095b57600080fd5b505af115801561096f573d6000803e3d6000fd5b50505060008481526006602081905260409091206004810180546001600160a01b0319163317905501805461ffff19166001179055506109b3600280546001019055565b6004546005546040516001600160a01b039092169181156108fc0291906000818181858888f193505050501580156109ef573d6000803e3d6000fd5b50506001600055505050565b60606000610a0860015490565b905060008060005b83811015610a60578560066000610a28846001610fdf565b8152602001908152602001600020600201541415610a4e57610a4b600184610fdf565b92505b80610a588161100e565b915050610a10565b5060008267ffffffffffffffff811115610a8a57634e487b7160e01b600052604160045260246000fd5b604051908082528060200260200182016040528015610ac357816020015b610ab0610e34565b815260200190600190039081610aa85790505b50905060005b84811015610bdc578660066000610ae1846001610fdf565b8152602001908152602001600020600201541415610bca576000610b06826001610fdf565b600081815260066020818152604092839020835161010080820186528254825260018301546001600160a01b039081169483019490945260028301549582019590955260038201548316606082015260048201549092166080830152600581015460a08301529182015460ff808216151560c0840152939004909216151560e0830152855192935091859087908110610baf57634e487b7160e01b600052603260045260246000fd5b6020908102919091010152610bc5600186610fdf565b945050505b80610bd48161100e565b915050610ac9565b5095945050505050565b60606000610bf360015490565b905060008060005b83811015610c56573360066000610c13846001610fdf565b81526020810191909152604001600020600301546001600160a01b03161415610c4457610c41600184610fdf565b92505b80610c4e8161100e565b915050610bfb565b5060008267ffffffffffffffff811115610c8057634e487b7160e01b600052604160045260246000fd5b604051908082528060200260200182016040528015610cb957816020015b610ca6610e34565b815260200190600190039081610c9e5790505b50905060005b84811015610317573360066000610cd7846001610fdf565b81526020810191909152604001600020600301546001600160a01b03161415610dcb576000610d07826001610fdf565b600081815260066020818152604092839020835161010080820186528254825260018301546001600160a01b039081169483019490945260028301549582019590955260038201548316606082015260048201549092166080830152600581015460a08301529182015460ff808216151560c0840152939004909216151560e0830152855192935091859087908110610db057634e487b7160e01b600052603260045260246000fd5b6020908102919091010152610dc6600186610fdf565b945050505b80610dd58161100e565b915050610cbf565b805480610e2c5760405162461bcd60e51b815260206004820152601b60248201527f436f756e7465723a2064656372656d656e74206f766572666c6f7700000000006044820152606401610343565b600019019055565b6040805161010081018252600080825260208201819052918101829052606081018290526080810182905260a0810182905260c0810182905260e081019190915290565b80356001600160a01b0381168114610e8f57600080fd5b919050565b60008060408385031215610ea6578182fd5b610eaf83610e78565b946020939093013593505050565b600080600060608486031215610ed1578081fd5b610eda84610e78565b95602085013595506040909401359392505050565b600060208284031215610f00578081fd5b5035919050565b602080825282518282018190526000919060409081850190868401855b82811015610f9b57815180518552868101516001600160a01b039081168887015286820151878701526060808301518216908701526080808301519091169086015260a0808201519086015260c08082015115159086015260e0908101511515908501526101009093019290850190600101610f24565b5091979650505050505050565b6020808252601f908201527f5265656e7472616e637947756172643a207265656e7472616e742063616c6c00604082015260600190565b60008219821115610ff257610ff2611029565b500190565b60008282101561100957611009611029565b500390565b600060001982141561102257611022611029565b5060010190565b634e487b7160e01b600052601160045260246000fdfea2646970667358221220c203b0f3d867d13258c4425ae23ce6f10b869dff5485bb0acd8bbec8d588fa0d64736f6c63430008040033",
  "linkReferences": {},
  "deployedLinkReferences": {}
}